:020000006A286C
:10000800FF00030E8301A3000A08A2008A018B1CCB
:100018003D280814881405151530FB004B30FC00EA
:10002800BE30FD00FD0B1628FC0B1628FB0B16280E
:10003800000005111530FB004B30FC00BE30FD0000
:10004800FD0B2428FC0B2428FB0B24280000851D0D
:100058000F28061A3328861A332888102D28881462
:10006800061E382801308700861E3C28023087008B
:100078008B100B1D63280814881405141530FB0019
:100088004B30FC00BE30FD00FD0B4828FC0B482817
:10009800FB0B4828000005101530FB004B30FC0016
:1000A800BE30FD00FD0B5628FC0B5628FB0B5628CE
:1000B8000000851D41280510FD3081000B11220824
:0C00C8008A00230E8300FF0E7F0E09004B
:1000D400FF308316031386008801033083128800DF
:1000E400F0308316870007309F0083129F01183079
:1000F40083168500B0308B0068308100FD30831298
:100104008100061EA1280130870086188C28871BD1
:100114008C288C2806199328071B9328871A932860
:1001240097280810861E9328081486199C28071AF5
:100134009C28A128061BA02808109C280814861EA9
:10014400C028023087000619AC28071BAC28871A80
:10015400AC28AC288618B128871BB128B628061A03
:10016400B5288810B12888148619BB28071ABB281B
:10017400C028061BBF280810BB280814061FDF2848
:10018400033087008619C928071AC928C928861880
:10019400CE28871BCE28D328061AD2288810CE282A
:1001A40088140619DA28071BDA28871ADA28DF28C0
:0E01B400861ADE288810DA2888148328E028AE
:02400E004A2F37
:00000001FF
